:400000000080002011000000956C0000956C000010B506F065FEC04610B512221B4B1A60302007F0D9F81A4A1A4B1A60A022D200194B1A60194B1A4A1A600024194A146006
:40004000194A1A60FC218901184A1160184A1A6080221206174B1A608022D202164B1A604123164A1360164A13604022154B1A600232154B1A601549082006F0F7FF082078
:4000800006F0E8FF124B1C6010BDC046300010400600008004010B40040301400000014041FF00800003014040FF00800803014042FF008008010B4000010B404C010140DA
:4000C000380101402C0101400C010140557400000C020B4010B572B600240FE045486200131959000B00411889881A5AC31858880004104306F0C8FD0134E4B2012CEDD9C0
:400100003C490C313C487C3006F094FD3B4A3C4B1A603C4A3C4B1A60C02292003B4B1A603B4A3C4B1A60CC2292043B4B1A6030213A4B196080223A4B1A6099231B04394A6D
:400140001360A220C003384A1060384A13603848384A1060384A1360384A13609C200004374A1060374A1360D0208005364A1060364A136080225204354B1A60354803785D
:400180003C22934314221343DBB20370324A107816230343DBB213700F22304B1A60304A304B1A60FF22304B1A60304A304B1A600422304B1A60304A304B1A607222304B39
:4001C0001A60304A304B1A606022304B1A60D82252032F4B1A6002232E4A13602E4A11602E4A13602E4B1960FFF716FF06F03CFD10BDC046E08000006084000033330000CF
:400200000000024022222222000102400002024099EE33080003024000040240000502400007024000500F4008500F4010500F400000271B18500F4020500F4040500F4004
:4002400048500F4050500F4058500F4070500F4078500F4001700F4000700F4000000440B69D24000800044000010440B66DDB0008010440000204408993240008020440A1
:4002800000030440B16D1B000803044000040440080404400005044008050440000704400807044010B5064C2378002B07D1054B002B02D0044800E000BF0123237010BD2E
:4002C000481D002000000000CC800000084B10B5002B03D00749084800E000BF07480368002B00D110BD064B002BFBD09847F9E7000000004C1D0020CC800000C00000209A
:400300000000000070B50500030A0F221A407024644223001343DCB2002903D0502464422243D4B207F005F90600E8B207F0E4F8200007F0E7F8C046C046C046C046C0463D
:40034000C046C046C046C046C046C046C046C046C046C046C046C046C046C046C046C046C04607F0D5F80400300007F0E6F8200070BDC046F8B505000C00170007F0D9F85A
:400380000600200007F0B8F8402007F0BBF82B0A0F221A408024644223001343DCB2002F03D0602464422243D4B2E8B207F0A4F8200007F0A7F8300007F0BFF8C046C04671
:4003C000C046C046C046C046C046C046C046C046C046C046C046C046C046C046C046C046C046C046C046C046C046C046C046C046C046C046C046C046C046C046012006F032
:4004000047FEF8BD10B562B606F014FD06F0EEFB06F0F8FBFA20400006F03AFE002406E0A0B20121FFF76EFF294B185501341F2CF6DDFA20400006F02BFE264C0022292122
:400440002000FFF797FF002200212000FFF792FF0022C2212000FFF78DFF0022A0212000FFF788FF002290212000FFF783FF0A2006F00EFE013C002200212000FFF77AFF19
:4004800000220A212000FFF775FF002200212000FFF770FF002214212000FFF76BFF002200212000FFF766FF00227B212000FFF761FF002201212000FFF75CFF0022992143
:4004C0002000FFF757FF0A2006F0E2FDA2E7C046B81D002001180000FC23184AD35C03201840174B1B68002B03D080235B421843C0B2144B1B68002B02D040231843C0B2CA
:40050000114B1B68002B02D020231843C0B20F4B1B68002B02D010231843C0B20C4B1B68002B02D008231843C0B20A4B1B68002B02D004231843C0B27047C046FC1D002067
:40054000001F00200C1F0020FC1E0020041F0020F81D0020081F0020FC230D4AD054C2090C4B1A60820901231A400B490A6042091A400A490A6002091A4009490A60C208AE
:400580001A4008490A6080081840074B18607047FC1D0020001F00200C1F0020FC1E0020041F0020F81D0020081F00207047C0467047C0467047C046FB23014AD05470478E
:4005C000FC1D00207047C0467047C046014B18607047C04600020440014B1868C0B270470402044010B5FB23034AD35C7F201840FFF7E2FF10BDC046FC1D002010B5FB2326
:40060000044AD35C802040421843C0B2FFF7D4FF10BDC046FC1D002010B5064AFF24135DD15C0902581C105C0143034801800233135510BDFC1D0020101F002070B50A4C3C
:40064000FF25635D5A1C6255E05CFFF785FF635DE25C1202591C615C0A4304490A8002336355FFF7CBFF70BDFC1D0020101F00200022014B1A607047001F00200122014B9C
:400680001A607047001F0020024A136859424B4113607047001F00207047C04610B51A4A1388591C1180194AD35C0F22190091430A00E02905D11D3215498A5C0F210B4045
:4006C00013431C009A0013495258002A01D0904701E00F4AD05C0138C0B2424242410E4B1A60C2090D4B1A6003007F3B5A4253410B4A1360A3000B4A9B58002B01D0984713
:4007000001E0034B185510BD101F0020C4000020FC1D0020C41000200C1F0020FC1E0020041F0020C414002010B51B4A1388591C11801A4AD35C0F22190091430A00E029A1
:4007400005D11D3216498A5C0F210B401343144AD45CA200134BD358002B01D0984701E00F4B185D0138C0B2424242410E4B1A60C2090E4B1A6003007F3B5A4253410C4A94
:400780001360A3000B4A9B58002B01D0984701E0034B185510BDC046101F0020C4000020FC1D0020C41000200C1F0020FC1E0020041F0020C4140020F8B52F4A1388591C3B
:4007C00011802E4AD25CFD232D49CB5C15091D430F210A40134399002A4A8A58002A02D09047040001E0264AD45CAB00254A9B58002B01D0984701E0214B585D03199BB21D
:400800001A0A0126324020490A60FF221A40574257411E490F60D90931401D4E316001006140090604D46240120603D4002102E0002100E00121174A11600021164A116053
:400840001F2202400F2A05D110321340102B03D0002202E0002200E00122104B1A600419E0B2AB000E4A9B58002B01D0984701E0034B5855F8BDC046101F0020C4000020FB
:40088000FC1D0020C4100020001F00200C1F0020FC1E0020041F0020F81D0020081F0020C4140020F8B52F4A1388591C11802E4AD35C2E4AFD21515C1D090D430F200340F7
:4008C0000B43D25C91002A4BCB58002B02D09847040001E0254B9C5CAB00254A9B58002B01D0984701E0214B585D03199BB21A0A012632401F490A60FF221A40574257419C
:400900001D490F60D90931401C4E316001006140090604D46240120603D4002102E0002100E00121164A11600021164A11601F2202400F2A05D110321340102B03D000223A
:4009400002E0002200E001220F4B1A600419E0B2AB000E4A9B58002B01D0984701E0034B5855F8BD101F0020C4000020FC1D0020C4100020001F00200C1F0020FC1E002067
:40098000041F0020F81D0020081F0020C4140020F8B53A4A1388591C1180394AD35C0F22190091430A00E02905D11D3235498A5C0F210B4013439A0033495258002A02D0B5
:4009C0009047040001E02F4AD45C2C4A1388591C11802B4AD35C0F22190091430A00E02905D11D322749895CEE3A13400B431D009A0025495258002A01D0904701E0214A76
:400A0000D05C03199BB21A0A012632401F490A60FF221A40574257411D490F60D90931401C4E316001006140090604D46240120603D4002102E0002100E00121164A1160B2
:400A40000021164A11601F2202400F2A05D110321340102B03D0002202E0002200E001220F4B1A600419E0B2AB000E4A9B58002B01D0984701E0034B5855F8BD101F0020F2
:400A8000C4000020FC1D0020C4100020001F00200C1F0020FC1E0020041F0020F81D0020081F0020C4140020F8B53B4A1388591C11803A4AD35C0F22190091430A00E029F3
:400AC00005D11D3236498A5C0F210B401343344AD25C9100334BCB58002B02D09847040001E02F4B9C5C2C4A1388591C11802B4AD35C0F22190091430A00E02905D11D3279
:400B00002749895CEE3A13400B431D009A0025495258002A01D0904701E0214AD05C03199BB21A0A012632401F490A60FF221A40574257411D490F60D90931401C4E3160B7
:400B400001006140090604D46240120603D4002102E0002100E00121164A11600021164A11601F2202400F2A05D110321340102B03D0002202E0002200E001220F4B1A6040
:400B80000419E0B2AB000E4A9B58002B01D0984701E0034B5855F8BD101F0020C4000020FC1D0020C4100020001F00200C1F0020FC1E0020041F0020F81D0020081F002041
:400BC000C4140020F8B531490A88531C9BB20B802F49885C0F22010091430A00E02905D11D322C49895CEE3A10400843591C274A1180274AD55C04008300274A9B58002B17
:400C000001D0984701E0234B185C43199BB21A0A01218C460A40214E3260FF221A40574257411F4E3760D909664631401D4E316029004140090605D46A408021114203D186
:400C4000002102E0002100E00121174A11600021164A11601F2202400F2A05D110321340102B03D0002202E0002200E00122104B1A602818C0B2A3000E4A9B58002B01D0BB
:400C8000984701E0034B1855F8BDC046101F0020C4000020FC1D0020C4100020001F00200C1F0020FC1E0020041F0020F81D0020081F0020C4140020F8B531490A88531CFB
:400CC0009BB20B802F498A5C0F21100088430100E02805D11D312C48415C0F2002400A4329498C5C591C264A1180264AD55CA200264BD358002B01D0984701E0224B185D6A
:400D000043199BB21A0A01218C460A40204E3260FF221A40574257411E4E3760D909664631401D4E316029004140090605D46A408021114203D1002102E0002100E00121D4
:400D4000164A11600021164A11601F2202400F2A05D110321340102B03D0002202E0002200E001220F4B1A602818C0B2A3000E4A9B58002B01D0984701E0034B1855F8BDB2
:400D8000101F0020C4000020FC1D0020C4100020001F00200C1F0020FC1E0020041F0020F81D0020081F0020C414002070B51E4A1388591C11801D4AD35C0F221900914376
:400DC0000A00E02905D11D3219498A5C0F210B4013431C009A0017495258002A02D09047030001E0124AD35C5A00134D29680A4352B2D0B259B2C90F2960454245410F49B1
:400E00000D60D20F0E490A6043405BB2DB0F0D4A1360A3000C4A9B58002B01D0984701E0034B185570BDC046101F0020C4000020FC1D0020C4100020001F00200C1F0020DF
:400E4000FC1E0020041F0020C414002070B51E4A1388591C11801D4AD35C0F22190091430A00E02905D11D3219498A5C0F210B401343174AD45CA200164BD358002B02D00E
:400E80009847030001E0124B1B5D5A00124D29680A4352B2D0B259B2C90F2960454245410E490D60D20F0E490A6043405BB2DB0F0C4A1360A3000C4A9B58002B01D0984794
:400EC00001E0034B185570BD101F0020C4000020FC1D0020C4100020001F00200C1F0020FC1E0020041F0020C4140020F8B52F4A1388591C11802E4AD25CFD232D49CB5CA0
:400F000014091C430F210A40134399002A4A8A58002A02D09047050001E0264AD55CA300254A9B58002B01D0984701E0214B185D431922490A68944663449BB21A0A012628
:400F400032400A60FF221A40574257411C490F60D90931401B4E316001006940090604D455402A0603D4002102E0002100E00121154A11600021154A11601F2210400F28EC
:400F800003D11A40102A02D002E0002100E001210F4A1160D8B2A3000E4A9B58002B01D0984701E0034B1855F8BDC046101F0020C4000020FC1D0020C4100020001F0020DF
:400FC0000C1F0020FC1E0020041F0020F81D0020081F0020C4140020F8B52F4A1388591C11802E4AD35C2E4AFD21515C1C090C430F2003400B43D25C91002A4BCB58002B4E
:4010000002D09847050001E0254B9D5CA300254A9B58002B01D0984701E0214B185D431921490A68944663449BB21A0A012632400A60FF221A40574257411C490F60D9097F
:4010400031401B4E316001006940090604D455402A0603D4002102E0002100E00121154A11600021144A11601F2210400F2803D11A40102A02D002E0002100E001210F4A92
:401080001160D8B2A3000E4A9B58002B01D0984701E0034B1855F8BD101F0020C4000020FC1D0020C4100020001F00200C1F0020FC1E0020041F0020F81D0020081F002038
:4010C000C4140020F8B53A4A1388591C1180394AD35C0F22190091430A00E02905D11D3235498A5C0F210B4013439A0033495258002A02D09047050001E02F4AD55C2C4A50
:401100001388591C11802B4AD35C0F22190091430A00E02905D11D322749895CEE3A13400B431C009A0025495258002A01D0904701E0214AD05C431921490A689446634425
:401140009BB21A0A012632400A60FF221A40574257411C490F60D90931401B4E316001006940090604D455402A0603D4002102E0002100E00121154A11600021144A11601B
:401180001F2210400F2803D11A40102A02D002E0002100E001210F4A1160D8B2A3000E4A9B58002B01D0984701E0034B1855F8BD101F0020C4000020FC1D0020C41000205A
:4011C000001F00200C1F0020FC1E0020041F0020F81D0020081F0020C4140020F8B53B4A1388591C11803A4AD35C0F22190091430A00E02905D11D3236498A5C0F210B40B8
:401200001343344AD25C9100334BCB58002B02D09847050001E02F4B9D5C2C4A1388591C11802B4AD35C0F22190091430A00E02905D11D322749895CEE3A13400B431C00FA
:401240009A0025495258002A01D0904701E0214AD05C431921490A68944663449BB21A0A012632400A60FF221A40574257411C490F60D90931401B4E3160010069400906BF
:4012800004D455402A0603D4002102E0002100E00121154A11600021144A11601F2210400F2803D11A40102A02D002E0002100E001210F4A1160D8B2A3000E4A9B58002B60
:4012C00001D0984701E0034B1855F8BD101F0020C4000020FC1D0020C4100020001F00200C1F0020FC1E0020041F0020F81D0020081F0020C4140020F8B531490A88531CEA
:401300009BB20B802F49885C0F22010091430A00E02905D11D322C49895CEE3A10400843591C274A1180274AD55C04008300274A9B58002B01D0984701E0234B185C431920
:40134000234E3268944663449BB21A0A01218C460A403260FF221A40574257411D4E3760D909664631401C4E316029004140090605D4554080222A4203D1002102E00021CB
:4013800000E00121154A11600021154A11601F2210400F2803D11A40102A02D002E0002100E001210F4A1160D8B2A3000E4A9B58002B01D0984701E0034B1855F8BDC046EF
:4013C000101F0020C4000020FC1D0020C4100020001F00200C1F0020FC1E0020041F0020F81D0020081F0020C4140020F8B531490A88531C9BB20B802F498A5C0F21100074
:4014000088430100E02805D11D312C48415C0F2002400A4329498C5C591C264A1180264AD55CA200264BD358002B01D0984701E0224B185D4319234E3268944663449BB263
:401440001A0A01218C460A403260FF221A40574257411D4E3760D909664631401B4E316029004140090605D4554080222A4203D1002102E0002100E00121154A11600021B1
:40148000144A11601F2210400F2803D11A40102A02D002E0002100E001210F4A1160D8B2A3000E4A9B58002B01D0984701E0034B1855F8BD101F0020C4000020FC1D00207C
:4014C000C4100020001F00200C1F0020FC1E0020041F0020F81D0020081F0020C414002010B51A4A1388591C1180194AD35C0F22190091430A00E02905D11D3215498A5C87
:401500000F210B4013431C009A0013495258002A01D0904701E00F4AD05C0130C0B2424242410E4B1A60C2090D4B1A600300803B5A4253410B4A1360A3000B4A9B58002B00
:4015400001D0984701E0034B185510BD101F0020C4000020FC1D0020C41000200C1F0020FC1E0020041F0020C414002010B51B4A1388591C11801A4AD35C0F2219009143B6
:401580000A00E02905D11D3216498A5C0F210B401343144AD45CA200134BD358002B01D0984701E00F4B185D0130C0B2424242410E4B1A60C2090E4B1A600300803B5A4224
:4015C00053410C4A1360A3000B4A9B58002B01D0984701E0034B185510BDC046101F0020C4000020FC1D0020C41000200C1F0020FC1E0020041F0020C414002070B5294AA1
:401600001388591C1180284AD25CFD232749CB5C15091D430F210A4013439900244A8A58002A02D09047040001E0204AD45CAB001F4A9B58002B01D0984701E01B4B585D4B
:40164000031B9BB21A0A01252A401A490A60FF221A405642564118490E60D9092940174D296001006140090604D55440220603D5002102E0002100E00121114A116000219C
:40168000104A11601F2210400F2804D11340102B03D01E3A02E0012200E000220A4B1A6070BDC046101F0020C4000020FC1D0020C4100020001F00200C1F0020FC1E0020DC
:4016C000041F0020F81D0020081F002070B5294A1388591C1180284AD35C284AFD21515C1D090D430F2003400B43D25C9100244BCB58002B02D09847040001E01F4B9C5C6A
:40170000AB001F4A9B58002B01D0984701E01B4B585D031B9BB21A0A01252A4019490A60FF221A405642564117490E60D9092940164D296001006140090604D554402206EB
:4017400003D5002102E0002100E00121104A11600021104A11601F2210400F2804D11340102B03D01E3A02E0012200E000220A4B1A6070BD101F0020C4000020FC1D0020EF
:40178000C4100020001F00200C1F0020FC1E0020041F0020F81D0020081F002070B5344A1388591C1180334AD35C0F22190091430A00E02905D11D322F498A5C0F210B4093
:4017C00013439A002D495258002A02D09047040001E0294AD45C264A1388591C1180254AD35C0F22190091430A00E02905D11D3221498A5C0F210B4013439A001F495258AC
:40180000002A01D0904701E01B4AD05C031B9BB21A0A01252A401A490A60FF221A405642564118490E60D9092940174D296001006140090604D55440220603D5002102E0A6
:40184000002100E00121114A11600021104A11601F2210400F2804D11340102B03D01E3A02E0012200E000220A4B1A6070BDC046101F0020C4000020FC1D0020C4100020CE
:40188000001F00200C1F0020FC1E0020041F0020F81D0020081F002070B5354A1388591C1180344AD35C0F22190091430A00E02905D11D3230498A5C0F210B4013432E4AB5
:4018C000D25C91002D4BCB58002B02D09847040001E0294B9C5C264A1388591C1180254AD35C0F22190091430A00E02905D11D3221498A5C0F210B4013439A001F4952588F
:40190000002A01D0904701E01B4AD05C031B9BB21A0A01252A401A490A60FF221A405642564118490E60D9092940174D296001006140090604D55440220603D5002102E0A5
:40194000002100E00121114A11600021104A11601F2210400F2804D11340102B03D01E3A02E0012200E000220A4B1A6070BDC046101F0020C4000020FC1D0020C4100020CD
:40198000001F00200C1F0020FC1E0020041F0020F81D0020081F002070B529490A88531C9BB20B802749885C0F22010091430A00E02905D11D322449895CEE3A104008438D
:4019C000591C1F4A11801F4AD55C83001F4A9B58002B01D0984701E01B4B185C431B9BB21C0A012634401A4A1460FF221A405442544118490C60D9093140174C2160290052
:401A00004140090605D56A408021114203D0002102E0002100E00121104A11600021104A11601F2210400F2804D11340102B03D01E3A02E0012200E000220A4B1A6070BD95
:401A4000101F0020C4000020FC1D0020C4100020001F00200C1F0020FC1E0020041F0020F81D0020081F002070B52A490A88531C9BB20B8028498A5C0F21100088430100AF
:401A8000E02805D11D312548415C0F2002400A4322498A5C581C1F4908801F49CD5C91001F4BCB58002B01D0984701E01B4B985C431B9BB21C0A012634401A4A1460FF2253
:401AC0001A405442544118490C60D9093140174C216029004140090605D56A408021114203D0002102E0002100E00121104A11600021104A11601F2210400F2804D113408C
:401B0000102B03D01E3A02E0012200E000220A4B1A6070BD101F0020C4000020FC1D0020C4100020001F00200C1F0020FC1E0020041F0020F81D0020081F00200E4A138866
:401B4000591C11800D4AD35C0F22190091430A00E02905D11D320A498A5C0F210B401343074AD35CD15C09020133D25C0B001343014A13807047C046101F0020C400002030
:401B8000FC1D0020054A1388591C1180044AD35C0F229343EE3203498B547047101F0020C4000020FC1D0020F8B52F4A1388591C11802E4AD25CFD232D49CB5C14091C4364
:401BC0000F210A40134399002A4A8A58002A02D09047050001E0264AD55CA300254A9B58002B01D0984701E0214B185D431B22490A689B1A9BB21A0A012632400A60FF22A5
:401C00001A40574257411D490F60D90931401C4E316001006940090604D555402A0603D5002102E0002100E00121164A11600021154A11601F2210400F2804D11A40102AAE
:401C400003D0013102E0012100E000210F4A1160D8B2A3000E4A9B58002B01D0984701E0034B1855F8BDC046101F0020C4000020FC1D0020C4100020001F00200C1F0020FC
:401C8000FC1E0020041F0020F81D0020081F0020C4140020F8B52F4A1388591C11802E4AD35C2E4AFD21515C1C090C430F2003400B43D25C91002A4BCB58002B02D098471B
:401CC000050001E0254B9D5CA300254A9B58002B01D0984701E0214B185D431B21490A689B1A9BB21A0A012632400A60FF221A40574257411C490F60D90931401B4E3160C3
:401D000001006940090604D555402A0603D5002102E0002100E00121154A11600021154A11601F2210400F2804D11A40102A03D0013102E0012100E000210F4A1160D8B2FE
:401D4000A3000E4A9B58002B01D0984701E0034B1855F8BD101F0020C4000020FC1D0020C4100020001F00200C1F0020FC1E0020041F0020F81D0020081F0020C41400206E
:401D8000F8B53A4A1388591C1180394AD35C0F22190091430A00E02905D11D3235498A5C0F210B4013439A0033495258002A02D09047050001E02F4AD55C2C4A1388591C6B
:401DC00011802B4AD35C0F22190091430A00E02905D11D322749895CEE3A13400B431C009A0025495258002A01D0904701E0214AD05C431B21490A689B1A9BB21A0A01269B
:401E000032400A60FF221A40574257411C490F60D90931401B4E316001006940090604D555402A0603D5002102E0002100E00121154A11600021154A11601F2210400F281B
:401E400004D11A40102A03D0013102E0012100E000210F4A1160D8B2A3000E4A9B58002B01D0984701E0034B1855F8BD101F0020C4000020FC1D0020C4100020001F0020E2
:401E80000C1F0020FC1E0020041F0020F81D0020081F0020C4140020F8B53B4A1388591C11803A4AD35C0F22190091430A00E02905D11D3236498A5C0F210B401343344A56
:401EC000D25C9100334BCB58002B02D09847050001E02F4B9D5C2C4A1388591C11802B4AD35C0F22190091430A00E02905D11D322749895CEE3A13400B431C009A002549FA
:401F00005258002A01D0904701E0214AD05C431B21490A689B1A9BB21A0A012632400A60FF221A40574257411C490F60D90931401B4E316001006940090604D555402A0626
:401F400003D5002102E0002100E00121154A11600021154A11601F2210400F2804D11A40102A03D0013102E0012100E000210F4A1160D8B2A3000E4A9B58002B01D098474A
:401F800001E0034B1855F8BD101F0020C4000020FC1D0020C4100020001F00200C1F0020FC1E0020041F0020F81D0020081F0020C4140020F8B531490A88531C9BB20B80F5
:401FC0002F49885C0F22010091430A00E02905D11D322C49895CEE3A10400843591C274A1180274AD55C04008300274A9B58002B01D0984701E0234B185C431B234E32681F
:402000009B1A9BB21A0A01218C460A403260FF221A40574257411E4E3760D909664631401C4E316029004140090605D56A408021114203D0002102E0002100E00121164A77
:4020400011600021154A11601F2210400F2804D11A40102A03D0013102E0012100E000210F4A1160D8B2A3000E4A9B58002B01D0984701E0034B1855F8BDC046101F002000
:40208000C4000020FC1D0020C4100020001F00200C1F0020FC1E0020041F0020F81D0020081F0020C4140020F8B531490A88531C9BB20B802F498A5C0F211000884301002A
:4020C000E02805D11D312C48415C0F2002400A4329498C5C591C264A1180264AD55CA200264BD358002B01D0984701E0224B185D431B234E32689B1A9BB21A0A01218C4615
:402100000A403260FF221A40574257411D4E3760D909664631401C4E316029004140090605D56A408021114203D0002102E0002100E00121154A11600021154A11601F22EF
:4021400010400F2804D11A40102A03D0013102E0012100E000210F4A1160D8B2A3000E4A9B58002B01D0984701E0034B1855F8BD101F0020C4000020FC1D0020C410002097
:40218000001F00200C1F0020FC1E0020041F0020F81D0020081F0020C414002070B5344A1388591C1180334AD35C0F22190091430A00E02905D11D322F498A5C0F210B4085
:4021C00013431C009A002D495258002A01D0904701E0294AD05C83B2294A1268002A16D00F2101400125092900DC0025254A12682A4301D0063B9BB29922824280414042EE
:40220000214A1268104318D0603B9BB215E00F2101400125092900DC00251A4A12682A4301D006339BB29922824280414042164A1268104301D060339BB2190A0120014010
:40224000114A1160DA09024010490A60FF221A4051424A410E490A60D8B2A3000D4A9B58002B01D0984701E0034B185570BDC046101F0020C4000020FC1D0020C4100020CF
:40228000F81D0020081F0020001F0020FC1E00200C1F0020C414002070B5344A1388591C1180334AD35C0F22190091430A00E02905D11D322F498A5C0F210B4013432D4AFA
:4022C000D45CA2002C4BD358002B01D0984701E0284B185D83B2294A1268002A16D00F2101400125092900DC0025254A12682A4301D0063B9BB29922824280414042214AE8
:402300001268104318D0603B9BB215E00F2101400125092900DC0025194A12682A4301D006339BB29922824280414042154A1268104301D060339BB2190A01200140114A21
:402340001160DA09024010490A60FF221A4051424A410E490A60D8B2A3000D4A9B58002B01D0984701E0034B185570BD101F0020C4000020FC1D0020C4100020F81D0020FA
:40238000081F0020001F0020FC1E00200C1F0020C414002070B51B4A1388591C11801A4AD25CFD231949CB5C14091C430F210A4013439900164A8A58002A02D090470500B5
:4023C00001E0124AD55CA300114A9B58002B01D0984701E00D4B185D2843C0B2424242410C4B1A60C2090C4B1A6000220B4B1A60A3000B4A9B58002B01D0984701E0034BBD
:40240000185570BD101F0020C4000020FC1D0020C41000200C1F0020FC1E0020041F0020C414002070B51C4A1388591C11801B4AD35C1B4AFD21515C1C090C430F2003400C
:402440000B43D25C9100174BCB58002B02D09847050001E0124B9D5CA300124A9B58002B01D0984701E00E4B185D2843C0B2424242410D4B1A60C2090C4B1A6000220C4B6B
:402480001A60A3000B4A9B58002B01D0984701E0034B185570BDC046101F0020C4000020FC1D0020C41000200C1F0020FC1E0020041F0020C414002070B5274A1388591C47
:4024C0001180264AD35C0F22190091430A00E02905D11D3222498A5C0F210B4013439A0020495258002A02D09047050001E01C4AD55C194A1388591C1180184AD35C0F2271
:40250000190091430A00E02905D11D321449895CEE3A13400B431C009A0012495258002A01D0904701E00E4AD05C2843C0B2424242410D4B1A60C2090C4B1A6000220C4BAE
:402540001A60A3000B4A9B58002B01D0984701E0034B185570BDC046101F0020C4000020FC1D0020C41000200C1F0020FC1E0020041F0020C414002070B5284A1388591C85
:402580001180274AD35C0F22190091430A00E02905D11D3223498A5C0F210B401343214AD25C9100204BCB58002B02D09847050001E01C4B9D5C194A1388591C1180184A31
:4025C000D35C0F22190091430A00E02905D11D321449895CEE3A13400B431C009A0012495258002A01D0904701E00E4AD05C2843C0B2424242410D4B1A60C2090C4B1A6007
:4026000000220C4B1A60A3000B4A9B58002B01D0984701E0034B185570BDC046101F0020C4000020FC1D0020C41000200C1F0020FC1E0020041F0020C414002070B51C4968
:402640000A88531C9BB20B801A49885C0F22010091430A00E02905D11D321749895CEE3A10400843591C124A1180124AD55C04008300124A9B58002B01D0984701E00E4B1A
:40268000185C2843C0B2424242410D4B1A60C2090C4B1A6000220C4B1A60A3000B4A9B58002B01D0984701E0034B185570BDC046101F0020C4000020FC1D0020C41000206C
:4026C0000C1F0020FC1E0020041F0020C414002070B51C490A88531C9BB20B801A498A5C0F21100088430100E02805D11D311748415C0F2002400A4314498C5C591C114A67
:402700001180114AD55CA200114BD358002B01D0984701E00D4B185D2843C0B2424242410C4B1A60C2090C4B1A6000220B4B1A60A3000B4A9B58002B01D0984701E0034B92
:40274000185570BD101F0020C4000020FC1D0020C41000200C1F0020FC1E0020041F0020C414002010B5114A1388591C1180104AD25C0F23110099430B00E02905D11D33FD
:402780000C49C95CEE3B1A400A430A4BFF20195C4C1C1C54585C930007495B58002B01D0984701E0034B985410BDC046101F0020C4000020FC1D0020C414002010B5114A77
:4027C0001388591C1180104AD25C0F23110099430B00E02905D11D330C49CB5C0F210A401A430A4B9C5CFF215A5C501C5854985CA200074BD358002B01D0984701E0034BAC
:40280000185510BD101F0020C4000020FC1D0020C414002070B51B4A1388591C11801A4AD25CFD231949CB5C14091C430F210A4013439900164A8A58002A02D09047050095
:4028400001E0124AD55CA300114A9B58002B01D0984701E00D4B185D2840C0B2424242410C4B1A60C2090C4B1A6000220B4B1A60A3000B4A9B58002B01D0984701E0034B3B
:40288000185570BD101F0020C4000020FC1D0020C41000200C1F0020FC1E0020041F0020C414002070B51C4A1388591C11801B4AD35C1B4AFD21515C1C090C430F20034088
:4028C0000B43D25C9100174BCB58002B02D09847050001E0124B9D5CA300124A9B58002B01D0984701E00E4B185D2840C0B2424242410D4B1A60C2090C4B1A6000220C4BEA
:402900001A60A3000B4A9B58002B01D0984701E0034B185570BDC046101F0020C4000020FC1D0020C41000200C1F0020FC1E0020041F0020C414002070B5274A1388591CC2
:402940001180264AD35C0F22190091430A00E02905D11D3222498A5C0F210B4013439A0020495258002A02D09047050001E01C4AD55C194A1388591C1180184AD35C0F22EC
:40298000190091430A00E02905D11D321449895CEE3A13400B431C009A0012495258002A01D0904701E00E4AD05C2840C0B2424242410D4B1A60C2090C4B1A6000220C4B2D
:4029C0001A60A3000B4A9B58002B01D0984701E0034B185570BDC046101F0020C4000020FC1D0020C41000200C1F0020FC1E0020041F0020C414002070B5284A1388591C01
:402A00001180274AD35C0F22190091430A00E02905D11D3223498A5C0F210B401343214AD25C9100204BCB58002B02D09847050001E01C4B9D5C194A1388591C1180184AAC
:402A4000D35C0F22190091430A00E02905D11D321449895CEE3A13400B431C009A0012495258002A01D0904701E00E4AD05C2840C0B2424242410D4B1A60C2090C4B1A6085
:402A800000220C4B1A60A3000B4A9B58002B01D0984701E0034B185570BDC046101F0020C4000020FC1D0020C41000200C1F0020FC1E0020041F0020C414002070B51B49E5
:402AC0000A88531C9BB20B801949885C0F22010091430A00E02905D11D321649895CEE3A10400843591C114A1180114AD55C04008300114A9B58002B01D0984701E00D4B9C
:402B0000185C2840424242410C4B1A60C2090C4B1A6000220B4B1A60A3000B4A9B58002B01D0984701E0034B185570BD101F0020C4000020FC1D0020C41000200C1F002019
:402B4000FC1E0020041F0020C414002070B51C490A88531C9BB20B801A498A5C0F21100088430100E02805D11D311748415C0F2002400A4314498C5C591C114A1180114A41
:402B8000D55CA200114BD358002B01D0984701E00D4B185D2840424242410D4B1A60C2090C4B1A6000220C4B1A60A3000B4A9B58002B01D0984701E0034B185570BDC046CD
:402BC000101F0020C4000020FC1D0020C41000200C1F0020FC1E0020041F0020C414002010B5194A1388591C1180184AD35C0F22190091430A00E02905D11D3214498A5CC2
:402C00000F210B4013431C009A0012495258002A01D0904701E00E4AD05CC043C0B2424242410D4B1A60C2090C4B1A6000220C4B1A60A3000B4A9B58002B01D0984701E04D
:402C4000034B185510BDC046101F0020C4000020FC1D0020C41000200C1F0020FC1E0020041F0020C414002010B5194A1388591C1180184AD35C0F22190091430A00E0291B
:402C800005D11D3214498A5C0F210B401343124AD45CA200114BD358002B01D0984701E00D4B185DC043C0B2424242410C4B1A60C2090C4B1A6000220B4B1A60A3000B4ACA
:402CC0009B58002B01D0984701E0034B185510BD101F0020C4000020FC1D0020C41000200C1F0020FC1E0020041F0020C414002070B5174A1388591C1180164AD25CFD23A8
:402D00001549CB5C15091D430F210A4013439900124A8A58002A02D09047040001E00E4AD45CAB000D4A9B58002B01D0984701E0094B585D8443E0B242424241084B1A60C2
:402D4000C009084B18600022074B1A6070BDC046101F0020C4000020FC1D0020C41000200C1F0020FC1E0020041F002070B5174A1388591C1180164AD35C164AFD21515C95
:402D80001D090D430F2003400B43D25C9100124BCB58002B02D09847040001E00D4B9C5CAB000D4A9B58002B01D0984701E0094B585D8443E0B242424241084B1A60C009DD
:402DC000074B18600022074B1A6070BD101F0020C4000020FC1D0020C41000200C1F0020FC1E0020041F002010B5224A1388591C1180214AD35C0F22190091430A00E02929
:402E000005D11D321D498A5C0F210B4013439A001B495258002A02D09047040001E0174AD45C144A1388591C1180134AD35C0F22190091430A00E02905D11D320F498A5C40
:402E40000F210B4013439A000D495258002A01D0904701E0094AD05C8443E0B242424241084B1A60C009084B18600022074B1A6010BDC046101F0020C4000020FC1D0020C7
:402E8000C41000200C1F0020FC1E0020041F002010B5234A1388591C1180224AD35C0F22190091430A00E02905D11D321E498A5C0F210B4013431C4AD25C91001B4BCB58C6
:402EC000002B02D09847040001E0174B9C5C144A1388591C1180134AD35C0F22190091430A00E02905D11D320F498A5C0F210B4013439A000D495258002A01D0904701E07A
:402F0000094AD05C8443E0B242424241084B1A60C009084B18600022074B1A6010BDC046101F0020C4000020FC1D0020C41000200C1F0020FC1E0020041F002010B5174943
:402F40000A88531C9BB20B801549885C0F22010091430A00E02905D11D321249895CEE3A10400843591C0D4A11800D4AD45C83000D4A9B58002B01D0984701E0094B185CC0
:402F80002300834359425941084A1160DB09084A13600022074B1A6010BDC046101F0020C4000020FC1D0020C41000200C1F0020FC1E0020041F002010B518490A88531C77
:402FC0009BB20B8016498A5C0F21100088430100E02805D11D311348415C0F2002400A4310498A5C581C0D4908800D49CC5C91000D4BCB58002B01D0984701E0094B985CA7
:403000002300834359425941084A1160DB09084A13600022074B1A6010BDC046101F0020C4000020FC1D0020C41000200C1F0020FC1E0020041F002010B5114A1388591CED
:403040001180104AD35C0F22190091430A00E02905D11D320C498A5C0F210B4013439A000A495258002A01D0904701E0064AD05C054AFF21535C013BDBB25354D05410BD8F
:40308000101F0020C4000020FC1D0020C410002010B5124A1388591C1180114AD35C0F22190091430A00E02905D11D320D498A5C0F210B4013430B4AD25C91000A4BCB5875
:4030C000002B01D0984701E0064B985C054AFF21535C013BDBB25354D05410BD101F0020C4000020FC1D0020C410002070B5174A1388591C1180164AD25CFD231549CB5C96
:4031000014091C430F210A4013439900124A8A58002A02D09047050001E00E4AD55CA3000D4A9B58002B01D0984701E0094B185D2840C0B242424241084B1A60C009084BEE
:4031400018600022074B1A6070BDC046101F0020C4000020FC1D0020C41000200C1F0020FC1E0020041F002070B5174A1388591C1180164AD35C164AFD21515C1C090C4339
:403180000F2003400B43D25C9100124BCB58002B02D09847050001E00D4B9D5CA3000D4A9B58002B01D0984701E0094B185D2840C0B242424241084B1A60C009074B18604A
:4031C0000022074B1A6070BD101F0020C4000020FC1D0020C41000200C1F0020FC1E0020041F002010B5224A1388591C1180214AD35C0F22190091430A00E02905D11D32CA
:403200001D498A5C0F210B4013439A001B495258002A02D09047040001E0174AD45C144A1388591C1180134AD35C0F22190091430A00E02905D11D320F498A5C0F210B40E6
:4032400013439A000D495258002A01D0904701E0094AD05C2040C0B242424241084B1A60C009084B18600022074B1A6010BDC046101F0020C4000020FC1D0020C4100020D1
:403280000C1F0020FC1E0020041F002010B5234A1388591C1180224AD35C0F22190091430A00E02905D11D321E498A5C0F210B4013431C4AD25C91001B4BCB58002B02D0B9
:4032C0009847040001E0174B9C5C144A1388591C1180134AD35C0F22190091430A00E02905D11D320F498A5C0F210B4013439A000D495258002A01D0904701E0094AD05CF4
:403300002040C0B242424241084B1A60C009084B18600022074B1A6010BDC046101F0020C4000020FC1D0020C41000200C1F0020FC1E0020041F002010B516490A88531C45
:403340009BB20B801449885C0F22010091430A00E02905D11D321149895CEE3A10400843591C0C4A11800C4AD45C83000C4A9B58002B01D0984701E0084B185C20404242DF
:403380004241084B1A60C009074B18600022074B1A6010BD101F0020C4000020FC1D0020C41000200C1F0020FC1E0020041F002010B517490A88531C9BB20B8015498A5C05
:4033C0000F21100088430100E02805D11D311248415C0F2002400A430F498A5C581C0C4908800C49CC5C91000C4BCB58002B01D0984701E0084B985C204042424241084B0C
:403400001A60C009074B18600022074B1A6010BD101F0020C4000020FC1D0020C41000200C1F0020FC1E0020041F002030B5154A1388591C1180144AD15C0F230A009A4313
:403440001300E02A05D11D33104AD25CEE3B194011430E48435C1B024C1C025D1343013B9BB25D425D410A4A1560DD0B094A1560094A9A1855426A41084D2A601A0A42545D
:40348000035530BD101F0020C4000020FC1D00200C1F0020FC1E00200180FFFF041F002030B5164A1388591C1180154AD35C0F22190091430A00E02905D11D3211498A5C0A
:4034C0000F210B4013430F49C85C0B5C1B02441C0A5D1343013B9BB25D425D410A4A1560DD0B0A4A15600A4A9A1855426A41094D2A601A0A0A540B5530BDC046101F002052
:40350000C4000020FC1D00200C1F0020FC1E00200180FFFF041F00207047C0467047C04610B51C4A1388591C11801B4AD35C0F22190091430A00E02905D11D3217498A5CB1
:403540000F210B4013431C009A0015495258002A02D09047030001E0104AD35C5800C0B25AB2D20F0F490A60414241410E4A1160C1090E4A116043405BB2DB0F0C4A13605F
:40358000A3000C4A9B58002B01D0984701E0034B185510BD101F0020C4000020FC1D0020C4100020001F00200C1F0020FC1E0020041F0020C414002010B51D4A1388591C40
:4035C00011801C4AD35C0F22190091430A00E02905D11D3218498A5C0F210B401343164AD45CA200154BD358002B02D09847030001E0114B1B5D5800C0B25AB2D20F1049D6
:403600000A60414241410F4A1160C1090E4A116043405BB2DB0F0D4A1360A3000C4A9B58002B01D0984701E0034B185510BDC046101F0020C4000020FC1D0020C4100020E4
:40364000001F00200C1F0020FC1E0020041F0020C41400207047C0467047C04630B5154A1388591C1180144AD15C0F230A009A431300E02A05D11D33104AD25CEE3B1940FB
:4036800011430E48435C1B024C1C025D134301339BB25D425D410A4A1560DD0B094A1560094A9A1855426A41084D2A601A0A4254035530BD101F0020C4000020FC1D0020BF
:4036C0000C1F0020FC1E00200080FFFF041F002030B5164A1388591C1180154AD35C0F22190091430A00E02905D11D3211498A5C0F210B4013430F49C85C0B5C1B02441C49
:403700000A5D134301339BB25D425D410A4A1560DD0B0A4A15600A4A9A1855426A41094D2A601A0A0A540B5530BDC046101F0020C4000020FC1D00200C1F0020FC1E0020A6
:403740000080FFFF041F002070B5204A1388591C11801F4AD25CFD231E49CB5C15091D430F210A40134399001B4A8A58002A02D09047040001E0174AD45CAB00164A9B589E
:40378000002B01D0984701E0124B585D031B9BB21A0A01210A40114D2A60FF221A40564256410F4D2E60DB090B400E490B606040030604D55440230603D5002202E0002296
:4037C00000E00122084B1A6070BDC046101F0020C4000020FC1D0020C4100020001F00200C1F0020FC1E0020041F002070B5204A1388591C11801F4AD35C1F4AFD21515C63
:403800001D090D430F2003400B43D25C91001B4BCB58002B02D09847040001E0164B9C5CAB00164A9B58002B01D0984701E0124B585D031B9BB21A0A01210A40104D2A6042
:40384000FF221A40564256410E4D2E60DB090B400D490B606040030604D55440230603D5002202E0002200E00122084B1A6070BD101F0020C4000020FC1D0020C41000202B
:40388000001F00200C1F0020FC1E0020041F002070B52B4A1388591C11802A4AD35C0F22190091430A00E02905D11D3226498A5C0F210B4013439A0024495258002A02D0FA
:4038C0009047040001E0204AD45C1D4A1388591C11801C4AD35C0F22190091430A00E02905D11D3218498A5C0F210B4013439A0016495258002A01D0904701E0124AD05C89
:40390000031B9BB21A0A01210A40114D2A60FF221A40564256410F4D2E60DB090B400E490B606040030604D55440230603D5002202E0002200E00122084B1A6070BDC046DF
:40394000101F0020C4000020FC1D0020C4100020001F00200C1F0020FC1E0020041F002070B52C4A1388591C11802B4AD35C0F22190091430A00E02905D11D3227498A5C54
:403980000F210B401343254AD25C9100244BCB58002B02D09847040001E0204B9C5C1D4A1388591C11801C4AD35C0F22190091430A00E02905D11D3218498A5C0F210B409D
:4039C00013439A0016495258002A01D0904701E0124AD05C031B9BB21A0A01210A40114D2A60FF221A40564256410F4D2E60DB090B400E490B606040030604D554402306EC
:403A000003D5002202E0002200E00122084B1A6070BDC046101F0020C4000020FC1D0020C4100020001F00200C1F0020FC1E0020041F002070B520490A88531C9BB20B80B7
:403A40001E49885C0F22010091430A00E02905D11D321B49895CEE3A10400843591C164A1180164AD45C8300164A9B58002B01D0984701E0124B185C031B9BB21A0A0121A7
:403A80000A40114D2A60FF221A40564256410F4D2E60DB090B400E490B606040030605D562408023134203D0002202E0002200E00122084B1A6070BD101F0020C400002009
:403AC000FC1D0020C4100020001F00200C1F0020FC1E0020041F002070B521490A88531C9BB20B801F498A5C0F21100088430100E02805D11D311C48415C0F2002400A43E5
:403B000019498A5C581C164908801649CC5C9100164BCB58002B01D0984701E0124B985C031B9BB21A0A01210A40114D2A60FF221A40564256410F4D2E60DB090B400E493C
:403B40000B606040030605D562408023134203D0002202E0002200E00122084B1A6070BD101F0020C4000020FC1D0020C4100020001F00200C1F0020FC1E0020041F002060
:403B800010B50F4A1388591C11800E4AD35C0F22190091430A00E02905D11D320A498A5C0F210B4013439A0008495258002A02D00020904702E00021034AD15410BDC0468F
:403BC000101F0020C4000020FC1D0020C414002010B5104A1388591C11800F4AD35C0F22190091430A00E02905D11D320B498A5C0F210B401343094AD25C9100084BCB5830
:403C0000002B02D00020984702E00021034B995410BDC046101F0020C4000020FC1D0020C414002070B51B4A1388591C11801A4AD25CFD231949CB5C14091C430F210A40B7
:403C400013439900164A8A58002A02D09047050001E0124AD55CA300114A9B58002B01D0984701E00D4B185D6840C0B2424242410C4B1A60C2090C4B1A6000220B4B1A60D3
:403C8000A3000B4A9B58002B01D0984701E0034B185570BD101F0020C4000020FC1D0020C41000200C1F0020FC1E0020041F0020C414002070B51C4A1388591C11801B4AC4
:403CC000D35C1B4AFD21515C1C090C430F2003400B43D25C9100174BCB58002B02D09847050001E0124B9D5CA300124A9B58002B01D0984701E00E4B185D6840C0B24242BB
:403D000042410D4B1A60C2090C4B1A6000220C4B1A60A3000B4A9B58002B01D0984701E0034B185570BDC046101F0020C4000020FC1D0020C41000200C1F0020FC1E002025
:403D4000041F0020C414002070B5274A1388591C1180264AD35C0F22190091430A00E02905D11D3222498A5C0F210B4013439A0020495258002A02D09047050001E01C4AEE
:403D8000D55C194A1388591C1180184AD35C0F22190091430A00E02905D11D321449895CEE3A13400B431C009A0012495258002A01D0904701E00E4AD05C6840C0B242424C
:403DC00042410D4B1A60C2090C4B1A6000220C4B1A60A3000B4A9B58002B01D0984701E0034B185570BDC046101F0020C4000020FC1D0020C41000200C1F0020FC1E002065
:403E0000041F0020C414002070B5284A1388591C1180274AD35C0F22190091430A00E02905D11D3223498A5C0F210B401343214AD25C9100204BCB58002B02D0984705005D
:403E400001E01C4B9D5C194A1388591C1180184AD35C0F22190091430A00E02905D11D321449895CEE3A13400B431C009A0012495258002A01D0904701E00E4AD05C684071
:403E8000C0B2424242410D4B1A60C2090C4B1A6000220C4B1A60A3000B4A9B58002B01D0984701E0034B185570BDC046101F0020C4000020FC1D0020C41000200C1F0020E8
:403EC000FC1E0020041F0020C414002070B51C490A88531C9BB20B801A49885C0F22010091430A00E02905D11D321749895CEE3A10400843591C124A1180124AD55C04006A
:403F00008300124A9B58002B01D0984701E00E4B185C6840C0B2424242410D4B1A60C2090C4B1A6000220C4B1A60A3000B4A9B58002B01D0984701E0034B185570BDC0460F
:403F4000101F0020C4000020FC1D0020C41000200C1F0020FC1E0020041F0020C414002070B51C490A88531C9BB20B801A498A5C0F21100088430100E02805D11D311748DE
:403F8000415C0F2002400A4314498C5C591C114A1180114AD55CA200114BD358002B01D0984701E00D4B185D6840C0B2424242410C4B1A60C2090C4B1A6000220B4B1A6042
:403FC000A3000B4A9B58002B01D0984701E0034B185570BD101F0020C4000020FC1D0020C41000200C1F0020FC1E0020041F0020C414002070B51E4A1388591C11801D4A7D
:40400000D35C0F22190091430A00E02905D11D3219498A5C0F210B4013431C009A0017495258002A02D09047030001E0124AD35C134D2A68D20159080A4352B2D0B20121C5
:4040400019402960454245410E490D60D20F0E490A6043405BB2DB0F0C4A1360A3000C4A9B58002B01D0984701E0034B185570BD101F0020C4000020FC1D0020C4100020B8
:40408000001F00200C1F0020FC1E0020041F0020C414002070B51F4A1388591C11801E4AD35C0F22190091430A00E02905D11D321A498A5C0F210B401343184AD45CA20097
:4040C000174BD358002B02D09847030001E0134B1B5D144D2A68D20159080A4352B2D0B2012119402960454245410F490D60D20F0E490A6043405BB2DB0F0D4A1360A30044
:404100000C4A9B58002B01D0984701E0034B185570BDC046101F0020C4000020FC1D0020C4100020001F00200C1F0020FC1E0020041F0020C41400207047C0467047C046B3
:4041400010B51E4A1388591C11801D4AD35C0F22190091430A00E02905D11D3219498A5C0F210B4013431C009A0017495258002A02D09047020001E0124AD25C7F231100B9
:40418000994353080B435BB2D8B201210A400F490A60414241410E4A1160DB0F0D4A136000220D4B1A60A3000C4A9B58002B01D0984701E0034B185510BDC046101F0020BA
:4041C000C4000020FC1D0020C4100020001F00200C1F0020FC1E0020041F0020C414002010B51E4A1388591C11801D4AD35C0F22190091430A00E02905D11D3219498A5CAD
:404200000F210B401343174AD45CA200164BD358002B02D09847020001E0124B1A5D7F231100994353080B435BB2D8B201210A400E490A60414241410D4A1160DB0F0D4A51
:40424000136000220C4B1A60A3000C4A9B58002B01D0984701E0034B185510BD101F0020C4000020FC1D0020C4100020001F00200C1F0020FC1E0020041F0020C414002049
:404280007047C0467047C04610B514490B885A1C92B20A801249C95C0F23080098430300E02805D11D330F48C35C0F20014019430C4B595C5C5C24020131595C0C43FF2044
:4042C000195C0139C9B219545A54195C0139C9B21954120A5A54014B1C8010BD101F0020C4000020FC1D002030B50D4C21884B1C9BB20C4A555C2D02591C89B2D35C1D43E7
:40430000094AFF20135C013BDBB21354D154135C013BDBB21354090AD154258030BDC046101F0020C4000020FC1D002070B51E4A1388591C11801D4AD35C0F22190091438A
:404340000A00E02905D11D3219498A5C0F210B4013431C009A0017495258002A02D09047030001E0124AD35CDA0159080A4352B2D0B201211940104D2960454245410F4915
:404380000D60D20F0E490A6043405BB2DB0F0D4A1360A3000C4A9B58002B01D0984701E0034B185570BDC046101F0020C4000020FC1D0020C4100020001F00200C1F00202A
:4043C000FC1E0020041F0020C414002070B51E4A1388591C11801D4AD35C0F22190091430A00E02905D11D3219498A5C0F210B401343174AD45CA200164BD358002B02D059
:404400009847030001E0124B1B5DDA0159080A4352B2D0B2012119400F4D2960454245410E490D60D20F0E490A6043405BB2DB0F0C4A1360A3000C4A9B58002B01D09847F8
:4044400001E0034B185570BD101F0020C4000020FC1D0020C4100020001F00200C1F0020FC1E0020041F0020C414002010B5114A1388591C1180104AD35C104AFD21515CA5
:404480001C090C430F2003400B43D25C91000C4BCB58002B01D0984701E0084B985CA300084A9B58002B01D0984701E0034B185510BDC046101F0020C4000020FC1D0020EE
:4044C000C4100020C414002010B51B4A1388591C11801A4AD35C0F22190091430A00E02905D11D3216498A5C0F210B4013439A0014495258002A01D0904701E0104AD05C2C
:404500000D4A1388591C11800C4AD35C0F22190091430A00E02905D11D3209498A5C0F210B4013439A0008495258002A01D0904701E0034AD05410BD101F0020C4000020E6
:40454000FC1D0020C4100020C414002010B51C4A1388591C11801B4AD35C0F22190091430A00E02905D11D3217498A5C0F210B401343154AD25C9100144BCB58002B01D0AD
:40458000984701E0104B985C0D4A1388591C11800C4AD35C0F22190091430A00E02905D11D3209498A5C0F210B4013439A0008495258002A01D0904701E0034AD05410BD8A
:4045C000101F0020C4000020FC1D0020C4100020C414002010B511490A88531C9BB20B800F498C5C0F22210091430A00E02905D11D320C49895CEE3A14400C43591C074A02
:404600001180074AD05CA300074A9B58002B01D0984701E0034B185510BDC046101F0020C4000020FC1D0020C414002010B512490A88531C9BB20B8010498A5C0F2110005F
:4046400088430100E02805D11D310D48415C0F2002400A430A498A5C581C074908800749C85C9100074BCB58002B01D0984701E0034B985410BDC046101F0020C400002097
:40468000FC1D0020C414002010B5194A1388591C1180184AD35C0F22190091430A00E02905D11D3214498A5C0F210B4013431C009A0012495258002A02D09047030001E093
:4046C0000D4AD35C1A011B0913435BB2D8B2414241410B4A1160DB0F0A4A1360A3000A4A9B58002B01D0984701E0034B185510BD101F0020C4000020FC1D0020C4100020FE
:404700000C1F0020FC1E0020C414002010B51A4A1388591C1180194AD35C0F22190091430A00E02905D11D3215498A5C0F210B401343134AD45CA200124BD358002B02D081
:404740009847030001E00E4B1B5D1A011B0913435BB2D8B2414241410B4A1160DB0F0B4A1360A3000A4A9B58002B01D0984701E0034B185510BDC046101F0020C400002095
:40478000FC1D0020C41000200C1F0020FC1E0020C414002010B5114A1388591C1180104AD25C1048FD23C35C11091943445C0F210A40134399000C4A8A58002A01D09047E6
:4047C00001E0084AD05CA300084A9B58002B01D0984701E0034B185510BDC046101F0020C4000020FC1D0020C4100020C414002010B51C4A1388591C11801B4AD35C0F223F
:40480000190091430A00E02905D11D3217498A5C0F210B4013439A0015495258002A01D0904701E0114AD05C0E4A1388591C11800D4AD35C0F22190091430A00E02905D1DA
:404840001D320A498A5C0F210B401343074AD25C9100084BCB58002B01D0984701E0034B985410BD101F0020C4000020FC1D0020C4100020C414002010B5FD23114AD45CCE
:40488000114A1388591C1180104AD35C0F22190091430A00E02902D1D13A134023439A000B495258002A01D0904701E0054AD05CA300084A9B58002B01D0984701E0014BF5
:4048C000185510BDFC1D0020101F0020C4000020C4100020C414002010B5FD23134AD15C01240C43E4B2124A1388581C1080114AD35C0F22180090430200E02802D1D13A24
:4049000013400B439A000C495258002A01D0904701E0064AD05CA300084A9B58002B01D0984701E0014B185510BDC046FC1D0020101F0020C4000020C4100020C414002086
:4049400010B5FD23134AD15C02240C43E4B2124A1388581C1080114AD35C0F22180090430200E02802D1D13A13400B439A000C495258002A01D0904701E0064AD05CA30028
:40498000084A9B58002B01D0984701E0014B185510BDC046FC1D0020101F0020C4000020C4100020C414002010B5FD23134AD15C03240C43E4B2124A1388581C1080114A41
:4049C000D35C0F22180090430200E02802D1D13A13400B439A000C495258002A01D0904701E0064AD05CA300084A9B58002B01D0984701E0014B185510BDC046FC1D0020B2
:404A0000101F0020C4000020C4100020C414002010B5FD23134AD15C04240C43E4B2124A1388581C1080114AD35C0F22180090430200E02802D1D13A13400B439A000C49C2
:404A40005258002A01D0904701E0064AD05CA300084A9B58002B01D0984701E0014B185510BDC046FC1D0020101F0020C4000020C4100020C414002010B5FD23134AD15C66
:404A800005240C43E4B2124A1388581C1080114AD35C0F22180090430200E02802D1D13A13400B439A000C495258002A01D0904701E0064AD05CA300084A9B58002B01D012
:404AC000984701E0014B185510BDC046FC1D0020101F0020C4000020C4100020C414002010B5FD23134AD15C06240C43E4B2124A1388581C1080114AD35C0F2218009043F3
:404B00000200E02802D1D13A13400B439A000C495258002A01D0904701E0064AD05CA300084A9B58002B01D0984701E0014B185510BDC046FC1D0020101F0020C400002088
:404B4000C4100020C414002010B5FD23134AD15C07240C43E4B2124A1388581C1080114AD35C0F22180090430200E02802D1D13A13400B439A000C495258002A01D0904735
:404B800001E0064AD05CA300084A9B58002B01D0984701E0014B185510BDC046FC1D0020101F0020C4000020C4100020C414002010B5FD23134AD15C08240C43E4B2124A34
:404BC0001388581C1080114AD35C0F22180090430200E02802D1D13A13400B439A000C495258002A01D0904701E0064AD05CA300084A9B58002B01D0984701E0014B1855C2
:404C000010BDC046FC1D0020101F0020C4000020C4100020C414002010B5FD23134AD15C09240C43E4B2124A1388581C1080114AD35C0F22180090430200E02802D1D13A3F
:404C400013400B439A000C495258002A01D0904701E0064AD05CA300084A9B58002B01D0984701E0014B185510BDC046FC1D0020101F0020C4000020C4100020C414002043
:404C800010B5FD23134AD15C0A240C43E4B2124A1388581C1080114AD35C0F22180090430200E02802D1D13A13400B439A000C495258002A01D0904701E0064AD05CA300DD
:404CC000084A9B58002B01D0984701E0014B185510BDC046FC1D0020101F0020C4000020C4100020C414002010B5FD23134AD15C0B240C43E4B2124A1388581C1080114AF6
:404D0000D35C0F22180090430200E02802D1D13A13400B439A000C495258002A01D0904701E0064AD05CA300084A9B58002B01D0984701E0014B185510BDC046FC1D00206E
:404D4000101F0020C4000020C4100020C414002010B5FD23134AD15C0C240C43E4B2124A1388581C1080114AD35C0F22180090430200E02802D1D13A13400B439A000C4977
:404D80005258002A01D0904701E0064AD05CA300084A9B58002B01D0984701E0014B185510BDC046FC1D0020101F0020C4000020C4100020C414002010B5FD23134AD15C23
:404DC0000D240C43E4B2124A1388581C1080114AD35C0F22180090430200E02802D1D13A13400B439A000C495258002A01D0904701E0064AD05CA300084A9B58002B01D0C7
:404E0000984701E0014B185510BDC046FC1D0020101F0020C4000020C4100020C414002010B5FD23134AD15C0E240C43E4B2124A1388581C1080114AD35C0F2218009043A7
:404E40000200E02802D1D13A13400B439A000C495258002A01D0904701E0064AD05CA300084A9B58002B01D0984701E0014B185510BDC046FC1D0020101F0020C400002045
:404E8000C4100020C414002010B5FD23134AD15C0F240C43E4B2124A1388581C1080114AD35C0F22180090430200E02802D1D13A13400B439A000C495258002A01D09047EA
:404EC00001E0064AD05CA300084A9B58002B01D0984701E0014B185510BDC046FC1D0020101F0020C4000020C4100020C414002010B5FD23134AD25C9100134BCB58002B20
:404F000001D0984701E00F4B985C104A1388591C11800F4AD35C0F22190091430A00E02905D11D3207498A5C0F210B4013439A0008495258002A01D0904701E0014AD054FB
:404F400010BDC046FC1D0020C4100020101F0020C4000020C414002010B5FD23144AD25C01231343DBB29900124A8A58002A01D0904701E00E4AD05C0F4A1388591C118086
:404F80000E4AD35C0F22190091430A00E02905D11D3207498A5C0F210B4013439A0008495258002A01D0904701E0014AD05410BDFC1D0020C4100020101F0020C400002029
:404FC000C414002010B5FD23144AD25C02231343DBB29900124A8A58002A01D0904701E00E4AD05C0F4A1388591C11800E4AD35C0F22190091430A00E02905D11D3207490B
:405000008A5C0F210B4013439A0008495258002A01D0904701E0014AD05410BDFC1D0020C4100020101F0020C4000020C414002010B5FD23144AD25C03231343DBB29900CA
:40504000124A8A58002A01D0904701E00E4AD05C0F4A1388591C11800E4AD35C0F22190091430A00E02905D11D3207498A5C0F210B4013439A0008495258002A01D0904776
:4050800001E0014AD05410BDFC1D0020C4100020101F0020C4000020C414002010B5FD23144AD25C04231343DBB29900124A8A58002A01D0904701E00E4AD05C0F4A1388FE
:4050C000591C11800E4AD35C0F22190091430A00E02905D11D3207498A5C0F210B4013439A0008495258002A01D0904701E0014AD05410BDFC1D0020C4100020101F0020C6
:40510000C4000020C414002010B5FD23144AD25C05231343DBB29900124A8A58002A01D0904701E00E4AD05C0F4A1388591C11800E4AD35C0F22190091430A00E02905D181
:405140001D3207498A5C0F210B4013439A0008495258002A01D0904701E0014AD05410BDFC1D0020C4100020101F0020C4000020C414002010B5FD23144AD25C062313430D
:40518000DBB29900124A8A58002A01D0904701E00E4AD05C0F4A1388591C11800E4AD35C0F22190091430A00E02905D11D3207498A5C0F210B4013439A0008495258002AB7
:4051C00001D0904701E0014AD05410BDFC1D0020C4100020101F0020C4000020C414002010B5FD23144AD25C07231343DBB29900124A8A58002A01D0904701E00E4AD05C06
:405200000F4A1388591C11800E4AD35C0F22190091430A00E02905D11D3207498A5C0F210B4013439A0008495258002A01D0904701E0014AD05410BDFC1D0020C4100020DF
:40524000101F0020C4000020C414002010B5FD23144AD25C08231343DBB29900124A8A58002A01D0904701E00E4AD05C0F4A1388591C11800E4AD35C0F22190091430A00CD
:40528000E02905D11D3207498A5C0F210B4013439A0008495258002A01D0904701E0014AD05410BDFC1D0020C4100020101F0020C4000020C414002010B5FD23144AD25C6C
:4052C00009231343DBB29900124A8A58002A01D0904701E00E4AD05C0F4A1388591C11800E4AD35C0F22190091430A00E02905D11D3207498A5C0F210B4013439A000849C8
:405300005258002A01D0904701E0014AD05410BDFC1D0020C4100020101F0020C4000020C414002010B5FD23144AD25C0A231343DBB29900124A8A58002A01D0904701E071
:405340000E4AD05C0F4A1388591C11800E4AD35C0F22190091430A00E02905D11D3207498A5C0F210B4013439A0008495258002A01D0904701E0014AD05410BDFC1D00200E
:40538000C4100020101F0020C4000020C414002010B5FD23144AD25C0B231343DBB29900124A8A58002A01D0904701E00E4AD05C0F4A1388591C11800E4AD35C0F22190073
:4053C00091430A00E02905D11D3207498A5C0F210B4013439A0008495258002A01D0904701E0014AD05410BDFC1D0020C4100020101F0020C4000020C414002010B5FD23D9
:40540000144AD25C0C231343DBB29900124A8A58002A01D0904701E00E4AD05C0F4A1388591C11800E4AD35C0F22190091430A00E02905D11D3207498A5C0F210B401343E2
:405440009A0008495258002A01D0904701E0014AD05410BDFC1D0020C4100020101F0020C4000020C414002010B5FD23144AD25C0D231343DBB29900124A8A58002A01D0FA
:40548000904701E00E4AD05C0F4A1388591C11800E4AD35C0F22190091430A00E02905D11D3207498A5C0F210B4013439A0008495258002A01D0904701E0014AD05410BD4E
:4054C000FC1D0020C4100020101F0020C4000020C414002010B5FD23144AD25C0E231343DBB29900124A8A58002A01D0904701E00E4AD05C0F4A1388591C11800E4AD35C40
:405500000F22190091430A00E02905D11D3207498A5C0F210B4013439A0008495258002A01D0904701E0014AD05410BDFC1D0020C4100020101F0020C4000020C414002032
:4055400010B5FD23144AD25C0F231343DBB29900124A8A58002A01D0904701E00E4AD05C0F4A1388591C11800E4AD35C0F22190091430A00E02905D11D3207498A5C0F215A
:405580000B4013439A0008495258002A01D0904701E0014AD05410BDFC1D0020C4100020101F0020C4000020C414002010B5FD230D4AD25C91000D4BCB58002B01D098471D
:4055C00001E0094B985CFF2808D109490888431C9AB2084B1B56D3180B8003E0044A13880133138010BDC046FC1D0020C4100020101F0020C400002010B5FD230E4AD25C8A
:4056000001231343DBB299000C4A8A58002A01D0904701E0084AD05CFF2808D108490888431C9AB2074B1B56D3180B8003E0044A13880133138010BDFC1D0020C41000200F
:40564000101F0020C400002010B5FD230E4AD25C02231343DBB299000C4A8A58002A01D0904701E0084AD05CFF2808D108490888431C9AB2074B1B56D3180B8003E0044A8C
:4056800013880133138010BDFC1D0020C4100020101F0020C400002010B5FD230E4AD25C03231343DBB299000C4A8A58002A01D0904701E0084AD05CFF2808D10849088804
:4056C000431C9AB2074B1B56D3180B8003E0044A13880133138010BDFC1D0020C4100020101F0020C400002010B5FD230E4AD25C04231343DBB299000C4A8A58002A01D0C5
:40570000904701E0084AD05CFF2808D108490888431C9AB2074B1B56D3180B8003E0044A13880133138010BDFC1D0020C4100020101F0020C400002010B5FD230E4AD25C43
:4057400005231343DBB299000C4A8A58002A01D0904701E0084AD05CFF2808D108490888431C9AB2074B1B56D3180B8003E0044A13880133138010BDFC1D0020C4100020CA
:40578000101F0020C400002010B5FD230E4AD25C06231343DBB299000C4A8A58002A01D0904701E0084AD05CFF2808D108490888431C9AB2074B1B56D3180B8003E0044A47
:4057C00013880133138010BDFC1D0020C4100020101F0020C400002010B5FD230E4AD25C07231343DBB299000C4A8A58002A01D0904701E0084AD05CFF2808D108490888BF
:40580000431C9AB2074B1B56D3180B8003E0044A13880133138010BDFC1D0020C4100020101F0020C400002010B5FD230E4AD25C08231343DBB299000C4A8A58002A01D07F
:40584000904701E0084AD05CFF2808D108490888431C9AB2074B1B56D3180B8003E0044A13880133138010BDFC1D0020C4100020101F0020C400002010B5FD230E4AD25C02
:4058800009231343DBB299000C4A8A58002A01D0904701E0084AD05CFF2808D108490888431C9AB2074B1B56D3180B8003E0044A13880133138010BDFC1D0020C410002085
:4058C000101F0020C400002010B5FD230E4AD25C0A231343DBB299000C4A8A58002A01D0904701E0084AD05CFF2808D108490888431C9AB2074B1B56D3180B8003E0044A02
:4059000013880133138010BDFC1D0020C4100020101F0020C400002010B5FD230E4AD25C0B231343DBB299000C4A8A58002A01D0904701E0084AD05CFF2808D10849088879
:40594000431C9AB2074B1B56D3180B8003E0044A13880133138010BDFC1D0020C4100020101F0020C400002010B5FD230E4AD25C0C231343DBB299000C4A8A58002A01D03A
:40598000904701E0084AD05CFF2808D108490888431C9AB2074B1B56D3180B8003E0044A13880133138010BDFC1D0020C4100020101F0020C400002010B5FD230E4AD25CC1
:4059C0000D231343DBB299000C4A8A58002A01D0904701E0084AD05CFF2808D108490888431C9AB2074B1B56D3180B8003E0044A13880133138010BDFC1D0020C410002040
:405A0000101F0020C400002010B5FD230E4AD25C0E231343DBB299000C4A8A58002A01D0904701E0084AD05CFF2808D108490888431C9AB2074B1B56D3180B8003E0044ABC
:405A400013880133138010BDFC1D0020C4100020101F0020C400002010B5FD230E4AD25C0F231343DBB299000C4A8A58002A01D0904701E0084AD05CFF2808D10849088834
:405A8000431C9AB2074B1B56D3180B8003E0044A13880133138010BDFC1D0020C4100020101F0020C4000020024A1388013313807047C046101F0020094B1A68094B1B68DB
:405AC0009A4208D008490A88531C9BB2074882569B180B8003E0044A1388013313807047FC1E0020041F0020101F0020C40000200B4B1A680B4B1B6853400B4A126813438B
:405B000008D00A490888431C9AB2094B1B56D3180B8003E0054A1388013313807047C046FC1E0020041F00200C1F0020101F0020C4000020094B1A68094B1B68134308D09D
:405B400008490888431C9AB2074B1B56D3180B8003E0044A1388013313807047001F00200C1F0020101F0020C4000020084B1B68002B08D007490888431C9AB2064B1B5633
:405B8000D3180B8003E0034A1388013313807047041F0020101F0020C4000020084B1B68002B08D007490888431C9AB2064B1B56D3180B8003E0034A1388013313807047CB
:405BC000FC1E0020101F0020C4000020084B1B68002B08D007490888431C9AB2064B1B56D3180B8003E0034A13880133138070470C1F0020101F0020C4000020084B1B68FF
:405C0000002B08D007490888431C9AB2064B1B56D3180B8003E0034A1388013313807047001F0020101F0020C400002004490A88531C9BB2034882569B180B807047C0462A
:405C4000101F0020C4000020094B1A68094B1B689A4208D108490888431C9AB2074B1B56D3180B8003E0044A1388013313807047FC1E0020041F0020101F0020C4000020D0
:405C80000B4B1A680B4B1B6853400B4A1268134308D10A490888431C9AB2094B1B56D3180B8003E0054A1388013313807047C046FC1E0020041F00200C1F0020101F002071
:405CC000C40000200B4B1B685A4253410A4A126851424A411A4208D008490888431C9AB2074B1B56D3180B8003E0044A1388013313807047001F00200C1F0020101F0020AF
:405D0000C4000020084B1B68002B08D107490888431C9AB2064B1B56D3180B8003E0034A1388013313807047041F0020101F0020C4000020084B1B68002B08D10749088869
:405D4000431C9AB2064B1B56D3180B8003E0034A1388013313807047FC1E0020101F0020C4000020084B1B68002B08D107490888431C9AB2064B1B56D3180B8003E0034ABD
:405D800013880133138070470C1F0020101F0020C4000020084B1B68002B08D107490888431C9AB2064B1B56D3180B8003E0034A1388013313807047001F0020101F0020D8
:405DC000C400002010B5FD23084AD15C084A1388581C1080074AD05C8A00074BD358002B01D0984701E0014B585410BDFC1D0020101F0020C4000020C414002010B5FD231C
:405E00000A4AD25C01231343DBB209490A88501C08800849885C9900074A8A58002A01D0904701E0014AD05410BDC046FC1D0020101F0020C4000020C414002010B5FD23C2
:405E40000A4AD25C02231343DBB209490A88501C08800849885C9900074A8A58002A01D0904701E0014AD05410BDC046FC1D0020101F0020C4000020C414002010B5FD2381
:405E80000A4AD25C03231343DBB209490A88501C08800849885C9900074A8A58002A01D0904701E0014AD05410BDC046FC1D0020101F0020C4000020C414002010B5FD2340
:405EC0000A4AD25C04231343DBB209490A88501C08800849885C9900074A8A58002A01D0904701E0014AD05410BDC046FC1D0020101F0020C4000020C414002010B5FD23FF
:405F00000A4AD25C05231343DBB209490A88501C08800849885C9900074A8A58002A01D0904701E0014AD05410BDC046FC1D0020101F0020C4000020C414002010B5FD23BD
:405F40000A4AD25C06231343DBB209490A88501C08800849885C9900074A8A58002A01D0904701E0014AD05410BDC046FC1D0020101F0020C4000020C414002010B5FD237C
:405F80000A4AD25C07231343DBB209490A88501C08800849885C9900074A8A58002A01D0904701E0014AD05410BDC046FC1D0020101F0020C4000020C414002010B5FD233B
:405FC0000A4AD25C08231343DBB209490A88501C08800849885C9900074A8A58002A01D0904701E0014AD05410BDC046FC1D0020101F0020C4000020C414002010B5FD23FA
:406000000A4AD25C09231343DBB209490A88501C08800849885C9900074A8A58002A01D0904701E0014AD05410BDC046FC1D0020101F0020C4000020C414002010B5FD23B8
:406040000A4AD25C0A231343DBB209490A88501C08800849885C9900074A8A58002A01D0904701E0014AD05410BDC046FC1D0020101F0020C4000020C414002010B5FD2377
:406080000A4AD25C0B231343DBB209490A88501C08800849885C9900074A8A58002A01D0904701E0014AD05410BDC046FC1D0020101F0020C4000020C414002010B5FD2336
:4060C0000A4AD25C0C231343DBB209490A88501C08800849885C9900074A8A58002A01D0904701E0014AD05410BDC046FC1D0020101F0020C4000020C414002010B5FD23F5
:406100000A4AD25C0D231343DBB209490A88501C08800849885C9900074A8A58002A01D0904701E0014AD05410BDC046FC1D0020101F0020C4000020C414002010B5FD23B3
:406140000A4AD25C0E231343DBB209490A88501C08800849885C9900074A8A58002A01D0904701E0014AD05410BDC046FC1D0020101F0020C4000020C414002010B5FD2372
:406180000A4AD25C0F231343DBB209490A88501C08800849885C9900074A8A58002A01D0904701E0014AD05410BDC046FC1D0020101F0020C4000020C4140020024A13882F
:4061C000023313807047C046101F00200A4B1A680A4B1B689A420AD009490B885A1C92B20848C35C1B02825C13430B8003E0044A1388023313807047FC1E0020041F0020B4
:40620000101F0020C40000200C4B1A680C4B1B6853400C4A126813430AD00B490B885A1C92B20A48C35C1B02825C13430B8003E0054A1388023313807047C046FC1E00206B
:40624000041F00200C1F0020101F0020C40000200A4B1A680A4B1B6813430AD009490B885A1C92B20848C35C1B02825C13430B8003E0044A1388023313807047001F00200A
:406280000C1F0020101F0020C4000020094B1B68002B0AD008490B885A1C92B20748C35C1B02825C13430B8003E0034A1388023313807047041F0020101F0020C4000020DC
:4062C000094B1B68002B0AD008490B885A1C92B20748C35C1B02825C13430B8003E0034A1388023313807047FC1E0020101F0020C4000020094B1B68002B0AD008490B8863
:406300005A1C92B20748C35C1B02825C13430B8003E0034A13880233138070470C1F0020101F0020C4000020094B1B68002B0AD008490B885A1C92B20748C35C1B02825CAE
:4063400013430B8003E0034A1388023313807047001F0020101F0020C400002005490B885A1C92B20448C35C1B02825C13430B807047C046101F0020C40000200A4B1A68D7
:406380000A4B1B689A420AD109490B885A1C92B20848C35C1B02825C13430B8003E0044A1388023313807047FC1E0020041F0020101F0020C40000200C4B1A680C4B1B68B6
:4063C00053400C4A126813430AD10B490B885A1C92B20A48C35C1B02825C13430B8003E0054A1388023313807047C046FC1E0020041F00200C1F0020101F0020C4000020CE
:406400000C4B1B685A4253410B4A126851424A411A420AD009490B885A1C92B20848C35C1B02825C13430B8003E0044A1388023313807047001F00200C1F0020101F002021
:40644000C4000020094B1B68002B0AD108490B885A1C92B20748C35C1B02825C13430B8003E0034A1388023313807047041F0020101F0020C4000020094B1B68002B0AD1D6
:4064800008490B885A1C92B20748C35C1B02825C13430B8003E0034A1388023313807047FC1E0020101F0020C4000020094B1B68002B0AD108490B885A1C92B20748C35C54
:4064C0001B02825C13430B8003E0034A13880233138070470C1F0020101F0020C4000020094B1B68002B0AD108490B885A1C92B20748C35C1B02825C13430B8003E0034A03
:406500001388023313807047001F0020101F0020C400002010B5FD23114AD45CA200114BD358002B01D0984701E00D4B185D0130C0B2424242410C4B1A60C2090B4B1A6097
:406540000300803B5A425341094A1360A300094A9B58002B01D0984701E0014B185510BDFC1D0020C41000200C1F0020FC1E0020041F0020C414002010B5FD23134AD45CDD
:4065800001231C43E4B2A200114BD358002B01D0984701E00D4B185D0130C0B2424242410C4B1A60C2090C4B1A600300803B5A4253410A4A1360A300094A9B58002B01D05F
:4065C000984701E0014B185510BDC046FC1D0020C41000200C1F0020FC1E0020041F0020C414002010B5FD23134AD45C02231C43E4B2A200114BD358002B01D0984701E0F1
:406600000D4B185D0130C0B2424242410C4B1A60C2090C4B1A600300803B5A4253410A4A1360A300094A9B58002B01D0984701E0014B185510BDC046FC1D0020C410002063
:406640000C1F0020FC1E0020041F0020C414002010B5FD23134AD45C03231C43E4B2A200114BD358002B01D0984701E00D4B185D0130C0B2424242410C4B1A60C2090C4B7E
:406680001A600300803B5A4253410A4A1360A300094A9B58002B01D0984701E0014B185510BDC046FC1D0020C41000200C1F0020FC1E0020041F0020C414002010B5FD23A8
:4066C000134AD45C04231C43E4B2A200114BD358002B01D0984701E00D4B185D0130C0B2424242410C4B1A60C2090C4B1A600300803B5A4253410A4A1360A300094A9B588A
:40670000002B01D0984701E0014B185510BDC046FC1D0020C41000200C1F0020FC1E0020041F0020C414002010B5FD23134AD45C05231C43E4B2A200114BD358002B01D070
:40674000984701E00D4B185D0130C0B2424242410C4B1A60C2090C4B1A600300803B5A4253410A4A1360A300094A9B58002B01D0984701E0014B185510BDC046FC1D002056
:40678000C41000200C1F0020FC1E0020041F0020C414002010B5FD23134AD45C06231C43E4B2A200114BD358002B01D0984701E00D4B185D0130C0B2424242410C4B1A6068
:4067C000C2090C4B1A600300803B5A4253410A4A1360A300094A9B58002B01D0984701E0014B185510BDC046FC1D0020C41000200C1F0020FC1E0020041F0020C41400202A
:4068000010B5FD23134AD45C07231C43E4B2A200114BD358002B01D0984701E00D4B185D0130C0B2424242410C4B1A60C2090C4B1A600300803B5A4253410A4A1360A300A6
:40684000094A9B58002B01D0984701E0014B185510BDC046FC1D0020C41000200C1F0020FC1E0020041F0020C414002010B5FD23134AD45C08231C43E4B2A200114BD358E2
:40688000002B01D0984701E00D4B185D0130C0B2424242410C4B1A60C2090C4B1A600300803B5A4253410A4A1360A300094A9B58002B01D0984701E0014B185510BDC04652
:4068C000FC1D0020C41000200C1F0020FC1E0020041F0020C414002010B5FD23134AD45C09231C43E4B2A200114BD358002B01D0984701E00D4B185D0130C0B242424241BC
:406900000C4B1A60C2090C4B1A600300803B5A4253410A4A1360A300094A9B58002B01D0984701E0014B185510BDC046FC1D0020C41000200C1F0020FC1E0020041F00200F
:40694000C414002010B5FD23134AD45C0A231C43E4B2A200114BD358002B01D0984701E00D4B185D0130C0B2424242410C4B1A60C2090C4B1A600300803B5A4253410A4A80
:406980001360A300094A9B58002B01D0984701E0014B185510BDC046FC1D0020C41000200C1F0020FC1E0020041F0020C414002010B5FD23134AD45C0B231C43E4B2A2000F
:4069C000114BD358002B01D0984701E00D4B185D0130C0B2424242410C4B1A60C2090C4B1A600300803B5A4253410A4A1360A300094A9B58002B01D0984701E0014B18555D
:406A000010BDC046FC1D0020C41000200C1F0020FC1E0020041F0020C414002010B5FD23134AD45C0C231C43E4B2A200114BD358002B01D0984701E00D4B185D0130C0B2AB
:406A4000424242410C4B1A60C2090C4B1A600300803B5A4253410A4A1360A300094A9B58002B01D0984701E0014B185510BDC046FC1D0020C41000200C1F0020FC1E00200A
:406A8000041F0020C414002010B5FD23134AD45C0D231C43E4B2A200114BD358002B01D0984701E00D4B185D0130C0B2424242410C4B1A60C2090C4B1A600300803B5A42E1
:406AC00053410A4A1360A300094A9B58002B01D0984701E0014B185510BDC046FC1D0020C41000200C1F0020FC1E0020041F0020C414002010B5FD23134AD45C0E231C431B
:406B0000E4B2A200114BD358002B01D0984701E00D4B185D0130C0B2424242410C4B1A60C2090C4B1A600300803B5A4253410A4A1360A300094A9B58002B01D0984701E09C
:406B4000014B185510BDC046FC1D0020C41000200C1F0020FC1E0020041F0020C414002010B5FD23134AD45C0F231C43E4B2A200114BD358002B01D0984701E00D4B185D51
:406B80000130C0B2424242410C4B1A60C2090C4B1A600300803B5A4253410A4A1360A300094A9B58002B01D0984701E0014B185510BDC046FC1D0020C41000200C1F002060
:406BC000FC1E0020041F0020C414002010B5054B1B68DB680F220121034800F0D5FD012000F06AFD441D0020D08000000022034B1A808021FF23024AD1547047101F002058
:406C0000FC1D002010B508E072B6013206490A809B00064A9B58984762B6034B1A88044B9B5C0F2BF0D110BD101F0020C4180020C4000020F0B50025002711E0BB00C6587D
:406C4000F3B2FF22964308E06A008A181478A419527822700135013BDBB2002BF4D101370F2FEBD9F0BDC0460323044A1360044A13600022034B1A607047C0463000304011
:406C800030003140000E3F4010B50A00002100F0ADFD10BD10B500F009FD03680C2B00D1FEE7FEE710B5C0B200F0DEF9FEE7C04610B50300084A1068C318084A9A1A802A51
:406CC00002DC054A136005E000F0F0FC0C2303600120404210BDC046C41C0020181F002070B50F4E0F4D13E029686B68AC68002202E001C901C30432A242FAD1E8680022A2
:406D000002E0002102C304328242FAD11035013E002EE9D100F044FDF9F774FBFEE7C04601000000D485000010B50E4A136801218B43136000230AE0032B03D89A000A4987
:406D4000505800E009489900094A885001332F2BF2D9F9F7BFF9034A116801230B43136010BDC0460000104000000000956C0000000000200004000C014B18607047C046F5
:406D8000080120400004000C014B18607047C046140120400004000C014B18607047C0460C01204070B504000D0000F0C2FBAC40024B1C6000F0C1FB70BDC0460800204087
:406DC00010B500F0B6FB064A116801230B43136000F0B3FB18210120FFF7E4FF10BDC04600002040014B18607047C0463801204010B50D4C8023DB04236023682360002010
:406E0000FFF7B8FF236823600C22084B1A600020FFF7E8FF3122064B1A600520FFF7B2FF0320FFF7B7FF10BD00012040240120402801204010B5064B1B78002B04D1FFF70B
:406E4000D7FF0122024B1A70FFF7BAFF10BDC046641D002000230AE00D4A12683F210A400C49C95C8A4201D1033303E001332D2BF2D9032308490868084A02400A60084AD8
:406E8000944663441B78DBB2064A13607047C0462CFF0B401C85000000002240FFFFFFBF4DF3FF0F28FF0B40034B18688023DB05184000D0012070470000224030B52D4BAC
:406EC0001A783F231340042B01D9012000E0002000230AE0284A12683F210A402749C95C8A4201D1033303E001332D2BF2D9032323490A680124A2430A60224A1268224912
:406F00000A6000280FD021490D681F4C65601F24A2431F4C247822431A4C22601D4A1278D2B20A6005E01F218A4317390A4315490A60302B0BD1002803D0174B1B78DBB26B
:406F400002E0164B1B78DBB2154A13600CE0182B0AD1002803D0134B1B78DBB202E0124B1B78DBB20E4A1360104A116802230B43136030BD00F3FF0F2CFF0B401C85000071
:406F800050000C4034FF0B40681D002020FF0B40C0F1FF0FC1F1FF0FC3F1FF0F3FF3FF0F28FF0B40C2F1FF0F3EF3FF0F24002C4030B51A4B1A783F231340042B01D901206A
:406FC00000E0002000230AE0154A12683F210A401449C95C8A4201D1033303E001332D2BF2D9032310490A680224A2430A600F4C21681F2291430E4D2D682A400A432260E9
:40700000002803D00A4A51680A4A11600A4A944663441B78DBB2094A136030BD00F3FF0F2CFF0B401C85000024002C4034FF0B40681D002020FF0B404DF3FF0F28FF0B40E6
:40704000034B1B680220184000D001207047C04624002C401F2318401E3B8340014A13607047C04600E100E001BE704770B504000D001F2802D90020FFF7F6FF1034A400D4
:4070800080239B059C4664442068256070BDC04610B5040006E0084B586800F041FA074B9C46644480231B029C42F4D8024B9868604300F035FA10BDC81C00200080FFFF32
:4070C00070B582B000F070F9002862D000F031FA0500314A116801230B43136000230AE02E4A12683F210A402D49C95C8A4201D1033303E001332D2BF2D903230021294A81
:407100001160294A1268D20606D1274802681F318A4313390A430260244C2168244A1140244A5A438023DB019C466244D20B013A5205520D0B001343A02252031343236068
:407140001D4B1B680193302000F0FAF91B4A13688021C9050B4313602668194B1E40002407E00120FFF794FF1034A30533430F4A1360EE2CF5D90120FFF78AFFFF239B05D0
:407180001E430A4B1E60019A0B4B1A60280000F0D4F902B070BDC04650000C402CFF0B401C85000028FF0B4034FF0B400800224000F800C040420F0030001040000022402E
:4071C000FFFF3FC010B5034B1B7B584300F0A8F910BDC046C81C0020F0B55F4656464D464446F0B483B0040000F0A3F90190FFF75BFE002804D0FFF72DFE01239A4601E09A
:4072000000239A46FFF71CFF002808D0182C01D0302C07D1FFF7CCFE01239B4604E000239B4601E000239B46E61E2D2E74D8464B1B78DBB29C4208D8444B1B78DBB29946B7
